:03000000020539BD
:0C053900787FE4F6D8FD75816202058031
:100616004E4F573A553D005345543A553D0000005C
:10062600001F0000000000000E001F000000000E6A
:10063600000E001F0000001F15151B111F001F04D0
:10064600041E0A121F00080F120F0A1F02000F09CC
:0E0656000F090F0911001F11111F11111F00B4
:1006F800010940010800010A00080B53657456619E
:100708006C7565101353657456616C75653A782E6F
:1007180078784F4B2E052353746172740A284F70F2
:1007280065726174696E672E043253746F70073690
:0707380053746F7065642E1D
:0D07EC00C2938DA07F011207F9D2947F0106
:1007F900EFD394007480948040127E32EED394003B
:0C0809007480948040031E80F31F80E484
:0108150022C0
:10086600E4FFFEC292D293D294E5A0548060110FA9
:10087600BF00010ED3EF94E8EE940340EC7F012213
:020886007F00F1
:01088800224D
:0D08DD00AD07120866C2921207ECC2942209
:10081600E4FFFEAB57AA56A955A85412011E1203AF
:0C082600027C007D0A1203C9ED2430FFA3
:0D083200AD07120866D2921207ECC29422A4
:1008C500AF051208DD120383FF600C1208327401B4
:0808D50029F9E43AFA80EE2251
:10066400E4FCECC3940874809480503DE4FBEBC339
:10067400940874809480502EEC75F008A425092BFE
:10068400FF1208DD75F008ECA42BF582E435F0F5D3
:1006940083E5822424F582E5833406F583E493FF1D
:0906A4001208320B80C80C80B969
:0106AD00222A
:10088900C2947F381208DD7F0C1208DD7F0612083A
:10089900DD7F011208DD7F021208DD1206647F8008
:0308A9000208DD65
:0D08EA008F9DE4F5BD75BC8000000000226C
:1006AE00E4FDFCEF4488F5BC00000000E5BC30E43E
:1006BE00FB53BCEFAFBD7C00AD077E00ED7802C3EF
:1006CE0033CE33CED8F9FFE5BE5402FDEEFCEF4D2E
:1006DE00FDFFE41202C9E4FBFA79A0784012011E74
:0A06EE00E4FBFA7980784402022749
:1008AC0053877F759850438E40758920758BFD75E5
:0908BC008DFDD28ED2ACD2AF2228
:0808F7008F993099FDC299228E
:10083F008B5C8A5D895EED4C601CAB5C055EE55E92
:10084F00AA5D7002055D14F9120383FF1208F7ED1C
:07085F001D70E31C80E02284
:030023000207844D
:10078400C0E0C0D075D000C000C007C2AF30981F11
:10079400C298AF08050874402FF8A699743F25083D
:1007A400F8E6640A6006E50864147003750A01D269
:0A07B400AFD007D000D0D0D0E03263
:10000300E4FDFCC3ED9FEC9E5015E4FBFA0BBB0033
:0F001300010ABA03F8BBA2F50DBD00010C80E491
:0100220022BB
:1007BE007BFF7A0679167D801208C5AF57AE56AD0F
:1007CE0055AC541208247F2E1208327D207C411223
:0E07DE0008167DC87C421208167F56020832AB
:100740007BFF7A06791D7DC01208C5AF5BAE5AAD3E
:1007500059AC581208247F2E120832E4FFFE7D2087
:100760007C41AB5BAA5AA959A858120821E4FFFEA4
:100770007DC87C42AB5BAA5AA959A8581208217FB0
:0407800056020832E3
:0605C5007B007A00794082
:0605CB008B5C8A5D895E75
:1005D100E4FFFEAD62ED3395E0FCC3EF9DEC64807A
:1005E100F8EE648098502AAB5FAA60A9618F828E71
:1005F1008312039CFDAB5CAA5DA95E8F828E831280
:10060100039C6D60057E007F01220FBF00010E80FB
:04061100C2E4FEFF42
:0106150022C2
:10042C001208897F011208EA1208ACD291755B0A96
:10043C00755AD77559A375583FE4FF1206AE8F57FE
:10044C008E568D558C541207BE120740E50A640176
:10045C00600302052FF50AF55F75600075610B7579
:10046C006208FB1205C78F3D755F007560007561F2
:10047C00237562051205C58F3E755F0075600075AA
:10048C0061327562041205C58F3FE53D706D85497B
:10049C001D854A1F854B20FB7A0079137D10FC12B9
:1004AC00083FAC4AE41202CE7BCD7ACC79CC783DB5
:1004BC0012011EC004C005C006C007AC49E41202FC
:1004CC00CED003D002D001D00012002DC004C00544
:1004DC00C006C007AC4BE41202CE7B0A7AD7792354
:1004EC00783C12011ED003D002D001D00012002D96
:1004FC008F5B8E5A8D598C58753D01E53E7010FB03
:10050C007A0079287D0AFC12083FC291753E01E5FC
:10051C003F7010FB7A0079367D07FC12083FD291B0
:0D052C00753F017F0A7E00120003020445A6
:1000260002036EE86480F8E933E83360110460F097
:10003600ED33EC337009E8FCE9FDEAFEEBFF220440
:1000460060DED3EB9FEA9EE99DE8C2E78CF0C2F73B
:1000560095F0400CE8CCF8E9CDF9EACEFAEBCFFB07
:1000660012033985D0F05804700320D5B3E8047024
:10007600075002B2D502037892D5EC0460F7E4CCBF
:10008600C0E0C398F8603B94186008400DD0E0FBD0
:10009600020350E4FBFAC9FC8028E830E406E4C910
:1000A600FBE4CAFCE830E305E4C9CACBFCE8540724
:1000B6006010F8C3E913F9EA13FAEB13FBEC13FC2F
:1000C600D8F130F52FC3E49CFCEF9BFFEE9AFEEDD2
:1000D60099FDD0E0FBEF4E4D4C701222DB0302037C
:1000E60075EC2CFCEF33FFEE33FEED33FDED30E720
:1000F600EB020350EF2BFFEE3AFEED39FDD0E0FBAD
:1001060050130BBB0003020378ED13FDEE13FEEF55
:0801160013FFEC13FC0203507F
:10011E00EC4D6011E8497017ED33EC3304600DE4DB
:10012E00FCFFFEFD22E933E8330470F802036E1281
:10013E00033958046009E4CC248150062850090282
:10014E000378284003020375C0E0EB4A7044B9807F
:10015E0006D0E0FB020364EF4E701CBD8008EBFF7F
:10016E00EAFEE9FD80EBE98DF0A4FEE5F002020760
:10017E00E9CDF9EAFEEBFFEF89F0A4FCE5F0CE89BC
:10018E00F0A42EFFE435F0CD89F0A42DFEE435F079
:10019E008067EF4E7005BD80D780C3EF8BF0A4ACA7
:1001AE00F0EE8BF0A42CFCE435F0F8EF8AF0A42CE2
:1001BE00E5F038FCE433CB8DF0A42CFCE5F03BF8F5
:1001CE00EE8AF0A42CFCE5F038F8E433CF89F0A4E5
:1001DE002CFCE5F038CF3400CE89F0A42FFFE5F0EB
:1001EE003EFEE433C98DF0A42EFEE5F039CD8AF043
:1001FE00A42FFFE5F03EFEE43DFD33D0E0FB5007BB
:10020E000BBB000F020378EC2CFCEF33FFEE33FE3A
:06021E00ED33FD02035068
:10022400020378EC5D046005E85904700302036E70
:10023400120339580460F6EC4860F2EC7004FDFED9
:10024400FF22C860DB2481C85009C39860025006AD
:100254000203759850CAF582E9294B4A7005AB82AE
:1002640002036475F0007C1A7880C3EF9BEE9AED6C
:1002740099400DC3EF9BFFEE9AFEED99FDE842F025
:10028400DC23ACF0D0E0FFD0E0FED0E0FDAB822078
:10029400E7101BEB60BAEC2CFCEF33FFEE33FEED02
:1002A40033FD020350E803F830E705C0F075F000B1
:1002B400EF2FFFEE33FEED33FD40B830E7C280AAE6
:1002C40075F020800E75F010800575F0087D007EB5
:1002D400007F003392D530D50312041EEC33401056
:1002E400EF33FFEE33FEED33FDEC33FCD5F0ED22BE
:0E02F400E5F0247EA2D513CC92E7CDCEFF22FA
:10030200EDD2E7CD33EC3392D524814006E4FFFEF3
:10031200FDFC22FCE4CFCECDCC24E0501174FF8052
:10032200EDC3CC13CCCD13CDCE13CECF13CF0470EF
:07033200F030D5DE02041ECD
:10033900E9D2E7C933E833F892D5EDD2E7CD33EC0A
:0703490033FC5002B2D52283
:10035000EC30E7100FBF000C0EBE00080DBD00040E
:100360000BEB6014A2D5EB13FCED92E7FD2274FFBA
:10037000FCFDFEFF22E480F8A2D574FF13FC7D8013
:03038000E480EF27
:1005450002042CE493A3F8E493A34003F68001F29C
:1005550008DFF48029E493A3F85407240CC8C333B7
:10056500C4540F4420C8834004F456800146F6DF86
:10057500E4800B01020408102040809006F8E47E18
:10058500019360BCA3FF543F30E509541FFEE4937B
:10059500A360010ECF54C025E060A840B8E493A342
:1005A500FAE493A3F8E493A3C8C582C8CAC583CA6D
:1005B500F0A3C8C582C8CAC583CADFE9DEE780BE25
:01073F0000B9
:10038300BB010689828A83E0225002E722BBFE0278
:09039300E32289828A83E49322AB
:10039C00BB010CE58229F582E5833AF583E0225016
:1003AC0006E92582F8E622BBFE06E92582F8E22260
:0D03BC00E58229F582E5833AF583E493227A
:1003C900BC000BBE0029EF8DF084FFADF022E4CC18
:1003D900F875F008EF2FFFEE33FEEC33FCEE9DECE1
:1003E900984005FCEE9DFE0FD5F0E9E4CEFD22ED27
:1003F900F8F5F0EE8420D21CFEADF075F008EF2F71
:10040900FFED33FD4007985006D5F0F222C398FD61
:050419000FD5F0EA22FE
:0E041E00C3E49FFFE49EFEE49DFDE49CFC22EF
:00000001FF
