:0300000002049067
:0C049000787FE4F6D8FD7581710204D776
:1005C5004E4F573A553D005345543A553D000000AE
:1005D500001F0000000000000E001F000000000EBC
:1005E500000E001F0000001F15151B111F001F0422
:1005F500041E0A121F00080F120F0A1F02000F091E
:0E0605000F090F0911001F11111F11111F0005
:10051C00010940010800010A00080B53657456617B
:10052C006C7565101353657456616C75653A782E4D
:10053C0078784F4B2E052353746172740A284F70D0
:10054C0065726174696E672E043253746F7007366E
:10055C0053746F7065642E0E3D53657456616C75E3
:07056C00653A207878782E33
:0D07D300C2938DA07F011207E0D2947F0138
:0D07E000EFD3940040077E32DEFE1F80F351
:0107ED0022E9
:1007B100E4FFFEC292D293D294E5A030E7110FBFBD
:1007C10000010ED3EF94E8EE940340ED7F01227F08
:0107D1000027
:0107D2002204
:0D081F00AD071207B1C2921207D3C2942296
:10073E00E4FFFEAB66AA65A964A863120026120246
:0C074E000A7C007D0A1202E3ED2430FF5B
:0D075A00AD071207B1D2921207D3C294224C
:10080700AF0512081F12028BFF600C12075A740102
:0808170029F9E43AFA80EE220F
:1006A200E4FCE4FBEC75F008A425092BFF12081FFB
:1006B20075F008ECA42BF582E435F0F583E582248D
:1006C200D3F582E5833405F583E493FF12075A0BD1
:0706D200BB08D10CBC08CBF2
:0106D90022FE
:10078E00C2947F3812081F7F0C12081F7F061208B2
:10079E001F7F0112081F7F0212081F1206A27F8000
:0307AE0002081F1F
:0D082C008F9DE4F5BD75BC8000000000222A
:10061300E4FDFCEF4488F5BC00000000E5BC30E4D9
:10062300FB53BCEFAFBD7C00AD07ED7E007802C38A
:1006330033CE33CED8F9FFE5BE5402FDEEFCEF4DC9
:10064300FDFFE41201D1E4FBFA79A0784012002601
:0A065300E4FBFA7980784412012FCD
:01065D00227A
:1007EE0053877F759850438E40758920758BFD75A4
:0907FE008DFDD28ED2ACD2AF22E7
:080839008F993099FDC299224C
:100767008B6B8A6C896DED4C601CAB6B056DE56D11
:10077700AA6C7002056C14F912028BFF120839ED8E
:070787001D70E31C80E0225D
:030023000206DAF8
:1006DA00C0E0C0D075D000C000C007C2AF309802D9
:1006EA00C298AF080508744F2FF8A699744E2508CA
:1006FA00F8E6B40A06750A01750800D2AFD007D029
:06070A0000D0D0D0E03267
:10000300E4FDFCC3ED9FEC9E5015E4FBFA0BBB0033
:0F001300010ABA03F8BBA2F50DBD00010C80E491
:0100220022BB
:100710007BFF7A0579C57D80120807AF66AE65ADAF
:1007200064AC6312074C7F2E12075A7D207C411265
:0E073000073E7DC87C4212073E7F5602075AE4
:10065E007BFF7A0579CC7DC0120807AF6AAE69AD13
:10066E0068AC6712074C7F2E12075AE4FFFE7D20FE
:10067E007C41AB6AAA69A968A867120749E4FFFE24
:10068E007DC87C42AB6AAA69A968A8671207497F30
:04069E005602075A9F
:060574007B007A00794FC4
:06057A008B6B8A6C896D99
:10058000E4FFFEAD71ED3395E0FCC3EF9DEC6480BC
:10059000F8EE648098502AAB6EAA6FA9708F828E95
:1005A000831202A4FDAB6BAA6CA96D8F828E83129D
:1005B00002A46D60057E007F01220FBF00010E8046
:0405C000C2E4FEFF94
:0105C4002214
:1003460012078E7F0112082C1207EED291756A0AE7
:100356007569D77568A375673FE4FF1206138F6644
:100366008E658D648C6312071012065EE50A6401C1
:100376006003020486F50AF56E756F0075700B75DD
:100386007108FB1205768F4B756E00756F007570E0
:10039600237571051205748F4C756E00756F0075A7
:1003A60070327571041205748F4DE54B60030204BB
:1003B6004DE559606D85581CF51D855A1E855B1FD8
:1003C6007B007A0079137D107C00120767E55A24BA
:1003D600D0FFE434FFFE7C007D0A1202D1AA06ABF0
:1003E60007E55824D0FFE434FFFE7D641202D1EF06
:1003F6002BFFEE3AFEE55B24D0FDEC34FFCD2FCD8E
:100406003EFCE41201D18F6A8E698D688C67E4FB2D
:10041600FA79C8784212012F8F6A8E698D688C67C7
:100426008022751C78751D2E751E78751F787B00C9
:100436007A00793D7D0E7C00120767E4F56AF5695E
:10044600F568F567754B01E54C7010FB7A00792865
:100456007D0AFC120767C291754C01E54D7010FBD1
:100466007A0079367D07FC120767D291754D01E453
:10047600F54E744F254EF8E4F6054EE54EB414F2EB
:0A0486007F0A7E0012000302035FEC
:10002600EC4D6011E8497017ED33EC3304600DE4D4
:10003600FCFFFEFD22E933E8330470F80202761273
:10004600024158046009E4CC248150062850090274
:10005600028028400302027DC0E0EB4A7044B9806A
:1000660006D0E0FB02026CEF4E701CBD8008EBFF71
:10007600EAFEE9FD80EBE98DF0A4FEE5F002010F52
:10008600E9CDF9EAFEEBFFEF89F0A4FCE5F0CE89B5
:10009600F0A42EFFE435F0CD89F0A42DFEE435F072
:1000A6008067EF4E7005BD80D780C3EF8BF0A4ACA0
:1000B600F0EE8BF0A42CFCE435F0F8EF8AF0A42CDB
:1000C600E5F038FCE433CB8DF0A42CFCE5F03BF8EE
:1000D600EE8AF0A42CFCE5F038F8E433CF89F0A4DE
:1000E6002CFCE5F038CF3400CE89F0A42FFFE5F0E4
:1000F6003EFEE433C98DF0A42EFEE5F039CD8AF03C
:10010600A42FFFE5F03EFEE43DFD33D0E0FB5007B3
:100116000BBB000F020280EC2CFCEF33FFEE33FE2C
:06012600ED33FD0202585A
:10012C00020280EC5D046005E8590470030202765B
:10013C00120241580460F6EC4860F2EC7004FDFECB
:10014C00FF22C860DB2481C85009C39860025006A6
:10015C0002027D9850CAF582E9294B4A7005AB82A0
:10016C0002026C75F0007C1A7880C3EF9BEE9AED5E
:10017C0099400DC3EF9BFFEE9AFEED99FDE842F01E
:10018C00DC23ACF0D0E0FFD0E0FED0E0FDAB822071
:10019C00E7101BEB60BAEC2CFCEF33FFEE33FEEDFB
:1001AC0033FD020258E803F830E705C0F075F000A3
:1001BC00EF2FFFEE33FEED33FD40B830E7C280AADF
:1001CC0075F020800E75F010800575F0087D007EAE
:1001DC00007F003392D530D503120338EC33401036
:1001EC00EF33FFEE33FEED33FDEC33FCD5F0ED22B7
:0E01FC00E5F0247EA2D513CC92E7CDCEFF22F3
:10020A00EDD2E7CD33EC3392D524814006E4FFFEEC
:10021A00FDFC22FCE4CFCECDCC24E0501174FF804B
:10022A00EDC3CC13CCCD13CDCE13CECF13CF0470E8
:07023A00F030D5DE020338AD
:10024100E9D2E7C933E833F892D5EDD2E7CD33EC03
:0702510033FC5002B2D5227C
:10025800EC30E7100FBF000C0EBE00080DBD000407
:100268000BEB6014A2D5EB13FCED92E7FD2274FFB3
:10027800FCFDFEFF22E480F8A2D574FF13FC7D800C
:03028800E480EF20
:10049C00020346E493A3F8E493A34003F68001F22D
:1004AC0008DFF48029E493A3F85407240CC8C33361
:1004BC00C4540F4420C8834004F456800146F6DF30
:1004CC00E4800B010204081020408090051CE47E9F
:1004DC00019360BCA3FF543F30E509541FFEE49325
:1004EC00A360010ECF54C025E060A840B8E493A3EC
:1004FC00FAE493A3F8E493A3C8C582C8CAC583CA17
:10050C00F0A3C8C582C8CAC583CADFE9DEE780BECE
:010573000087
:10028B00BB010689828A83E0225002E722BBFE0271
:09029B00E32289828A83E49322A4
:1002A400BB010CE58229F582E5833AF583E022500F
:1002B40006E92582F8E622BBFE06E92582F8E22259
:0D02C400E58229F582E5833AF583E4932273
:1002D100EF8DF0A4A8F0CF8CF0A428CE8DF0A42E41
:0202E100FE22FB
:1002E300BC000BBE0029EF8DF084FFADF022E4CCFF
:1002F300F875F008EF2FFFEE33FEEC33FCEE9DECC8
:10030300984005FCEE9DFE0FD5F0E9E4CEFD22ED0D
:10031300F8F5F0EE8420D21CFEADF075F008EF2F57
:10032300FFED33FD4007985006D5F0F222C398FD48
:050333000FD5F0EA22E5
:0E033800C3E49FFFE49EFEE49DFDE49CFC22D6
:00000001FF
